:04000000803116280D
:100008007E14803140017F08BA000B1F11284E0171
:1000180019180F1C11288031DA2040013A08FF0016
:100028007E1009008031182881316B218031B5009C
:1000380081316C218031B60081316D218031B7006A
:1000480081316E218031B800203084000030850075
:100058001530813165217E10400181315D29FC0018
:100068008D287A08FB007B084001B40049289A17BC
:100078003508F0003608F1003708F2003408FB00B4
:100088007B08F30081311321080040013408FF3A4E
:1000980003193B289B280800330843018C000800FB
:1000A80040012E0843018C004001AE0108002F08D2
:1000B80043018C004001AF010800300843018C0067
:1000C8004001B0010800310843018C004001B10132
:1000D8000800200843018C004001B20108003408E0
:1000E80043018C00080040013408013A03195428E0
:1000F800033A03195B28013A03196128073A0319DF
:100108006728203A03196D28013A031950287328E3
:1001180008007C08003A03199B28013A031977283C
:10012800033A03193528013A03199B289B2808002C
:100138004001980199019A01FF309200FF30930025
:100148007F30940067307E01CE00FF30C300FF305F
:10015800B800E501C401B901CF01BA01C501D00158
:1001680000308B1B01304001BB008B1355307D01E3
:100178008F00AA308F000F104508C0391338C5000A
:100188004608C0391438C60015307E01A300163061
:10019800A40055307D018F00AA308F000F14400154
:1001A8003B1CD8288B1708008B1308005530FD001E
:1001B8007D084001B9004E010F1043010C08FD00F5
:1001C8007D084001B90043010F1DFB288F1A111F3C
:1001D800F42840013908FD007D08FA0003300E2993
:1001E80040013908FD007D08FA0001300E298F1AF8
:1001F800042940013908FD007D08FA0000300E2965
:1002080040013908FD007D08B8003908FD007D0867
:10021800FA000230803133204301101608007008BC
:10022800F5007108F6007208F700F901F9010430C9
:100238007902031833297908753E86008701010879
:10024800F40079082E3E8600870174088100013089
:10025800F4007408F90704307902031C1F29730895
:10026800F40074084001B3000800803043018F0097
:10027800263090000130910008309200FE308E0048
:1002880044308D004E010F101914080062305101DE
:100298008D008F01910102309300900192010800B6
:1002A80080319C20813181314A218131813139214C
:1002B80008008131542181318B170B1740019A13A3
:1002C8006429640080010131890B66290034603497
:0602D800FC3444345534EF
:020000040001F9
:0A000E00EC3FFF3F9F3FFF3FFF3F25
:00000001FF
