:04000000803116280D
:100008007E14803140017F08EC000B1F11284E013F
:1000180019180F1C11288431EA2440016C08FF00CC
:100028007E1009008031182841018531B9258031B9
:10003800B8004001ED01EE01EF01A030840000306E
:10004800850018308531B0257E1040018531962D08
:100058004001E00059295508D6005608EF00172935
:10006800FF30D60056084101B700E3304001E400F4
:100078000730E5006508D6005608EE006408D6008B
:100088005608ED0008002030D60056084101B70098
:10009800003085314525803171084001E90070083C
:1000A800E8006908D7006808D6000E30D736D60CA5
:1000B800890B5A285608D8005808EE006908D70056
:1000C8006808D6000630D800570DD70CD60CD80BC8
:1000D80068285608D9005908ED0008002330D600D2
:1000E80056084101B7000130853145258031710836
:1000F8004001E9007008E8006908D7006808D600E0
:100108000630D736D60C890B8528FF305605E8000F
:1001180003305705E9006630DA009630DB004030DE
:10012800DC009A30E100D930E2004030E300690891
:10013800F9006808F80085312525803178084001E4
:10014800AA007908AB007A08AC00C030A7007F305D
:10015800A8004430A90083311123803140012708C9
:10016800BA002808BB002908BC005A08FB005B0835
:10017800FC005C08FD006108F8006208F9006308EB
:10018800FA0081316821803178084001AA00790895
:10019800AB007A08AC006108A7006208A8006308F1
:1001A800A90083311123803140012708B7002808AE
:1001B800B8002908B90082315D2280314001370832
:1001C800DD003808DE003908DF005D08BA005E0887
:1001D800BB005F08BC00FF30B7009A30B80046305B
:1001E800B90082315D22803140013708C7003808E4
:1001F800C8003908C9008331BA2340014808E7001C
:100208004708E6006708D6005608EE006608D600DC
:100218005608ED0008002430D60056084101B60003
:10022800B501B50A080040016F08203A03194728AC
:10023800033A03197228073A03190F29DB3A0319FD
:100248003428672908006D0843018C000800400124
:100258006E0843018C00080040016F0843018C00C0
:1002680008004001700843018C000800410129087A
:1002780043018C004101B601080040016F084301A9
:100288008C00080040016F08013A03192729033A36
:1002980003192B29013A03193029073A031935297B
:1002A800203A03193A29412908006008003A03193D
:1002B8006729013A03194629033A03192F28013AF5
:1002C800031967296729080078084001A000790800
:1002D800A1007A08A2000310210D220DA300230813
:1002E800A6007B08A0007C08A1007D08A2000310DE
:1002F800210D220DA3002308A50026080319902923
:1003080025082602031897292603FF3A2507A00087
:1003180019302002031C97297B08F8007C08F90093
:100328007D08FA0008002508031908002608250298
:100338000318A6292503FF3A2607A0001930200232
:10034800031808000630A0002008A400FA1BA41710
:10035800FD1B2417F917FF30F805FF30F9050030A9
:10036800FA05FC17FF30FB05FF30FC050030FD05E2
:10037800250826020318E2290130FB35FC0DFD0D86
:10038800890BC1290130A502250826060319DD2994
:100398000130A402240807390319DD29C0290130D6
:1003A800FA36F90CF80C890BD4290130A000200882
:1003B800A607260825060319072AD3292608250291
:1003C8000318072A0130F835F90DFA0D890BE729CA
:1003D8000130A602250826060319032A0130A402C3
:1003E800240807390319032AE6290130FD36FC0CD5
:1003F800FB0C890BFA290130A0002008A507260864
:100408002506031DF929A41F192AFF30F806FF3015
:10041800F906FF30FA060130F807003003180130FA
:10042800F907003003180130FA07241F2B2AFF3080
:10043800FB06FF30FC06FF30FD060130FB070030ED
:1004480003180130FC07003003180130FD07A40130
:100458007808FB077908FC3D7A08FD3DFD1F462A10
:10046800FF30FB06FF30FC06FF30FD060130FB07BE
:10047800003003180130FC07003003180130FD0775
:10048800A401A40A7B08F0007C08F1007D08F200B2
:100498002608A0002008F3002408A1002108F40081
:1004A800843141247008F8007108F9007208FA00D4
:1004B800080040013708BD003808BE003908BF00F1
:1004C80003103E0D3F0DC0004008C1004108031D48
:1004D800742A0030B7000030B8000030B9000800B6
:1004E8003A08BD003B08BE003C08BF0003103E0DA3
:1004F8003F0DC0004008C6004608031D8A2A003088
:10050800B7000030B8000030B900080046087B3E4C
:10051800BD003D08C1073708BD003808BE003908CE
:10052800BF001030BF36BE0CBD0C890B962A3D08A3
:10053800C0004008C6003A08BD003B08BE003C08A1
:10054800BF001030BF36BE0CBD0C890BA62A3D0873
:10055800C0004008C6068030BD003D08C605B81773
:10056800BB17FF30BA05FF30BB050030BC050030B3
:10057800C2000030C3000030C4000730BD003D0891
:10058800C500371CCD2A3A08C2073B08C33D3C08C2
:10059800C43D0130B936B80CB70C890BCE2A0130EE
:1005A800BA35BB0DBC0D890BD42A0130C502031D19
:1005B800C52A0930BD003D08C500371CE92A3A089C
:1005C800C2073B08C33D3C08C43D0130B936B80CEE
:1005D800B70C890BEA2A0130C436C30CC20C890B4C
:1005E800F02A0130C502031DE12A4208F000430841
:1005F800F1004408F2004108BD003D08F300460838
:10060800BE003E08F4008431412470084001B70060
:100618007108B8007208B900080040012A08AD0046
:100628002B08AE002C08AF0003102E0D2F0DB000C4
:100638003008B5003508031D282B0030A70000300E
:10064800A8000030A90008002708AD002808AE005F
:100658002908AF0003102E0D2F0DB0003008B6008A
:100668003608031D3E2B0030A7000030A8000030DC
:10067800A90008000030B2000030B3000030B40018
:1006880089303607AD002D08B5022A08AD002B08C1
:10069800AE002C08AF001030AF36AE0CAD0C890B95
:1006A800502B2D08B0003008B6002708AD002808E8
:1006B800AE002908AF001030AF36AE0CAD0C890B78
:1006C800602B2D08B0003008B6068030AD002D082C
:1006D800B605AB17FF30AA05FF30AB050030AC05F7
:1006E800A817FF30A705FF30A8050030A905183066
:1006F800AD002D08B1000130B235B30DB40D890B32
:10070800802B29082C02031D8F2B28082B02031D80
:100718008F2B27082A02031C982B2708AA022808CF
:10072800AB3B2908AC3B32140130AA35AB0DAC0DFC
:10073800890B992B0130B102031D7F2B3208F00081
:100748003308F1003408F2003508AD002D08F30035
:100758003608AE002E08F4008431412470084001A8
:10076800A7007108A8007208A900080040014708FE
:10077800CB004808CC004908CD0003104C0D4D0DA6
:10078800CE004E08D4005408031DD32B0030CA00F5
:100798000030C9000030C8000030C7000800470812
:1007A800CB004808CC004908CD001730CD36CC0C1A
:1007B800CB0C890BDA2B4B08CE004E08CF00C8179C
:1007C800FF30C705FF30C8050030C9054708D0000D
:1007D8004808D1004908D200D3018E30D402D41F72
:1007E800112C5408803A8F3E0318032C0030CA009D
:1007F8000030C9000030C8000030C70008000130D0
:10080800D336D20CD10CD00C890B042C0130CB0080
:100818004B08D40703192A2C032C18305402031C44
:10082800272C0030CA000030C9000030C800003052
:10083800C70008000130D035D10DD20DD30D890B7A
:100848001F2C0130D4025408031D1E2C4F08031915
:10085800382CD009D109D209D309D00A0319D10AF1
:100868000319D20A0319D30A5308CA005208C90047
:100878005108C8005008C700080073080319492C1C
:10088800720871047004031D5A2C0030F000003007
:10089800F1000030F20008000130F5007508F30798
:1008A8000130F236F10CF00C890B552CFE30720534
:1008B8000319732C502C0130F5007508F30701302B
:1008C800F007003003180130F10700300318013039
:1008D800F2070130F236F10CF00C890B6E2CFF3068
:1008E80072050319802C5F2C0130F3020130F035BA
:1008F800F10DF20D890B7B2CF11B862C0230730253
:100908000318782C73188E2CFF30F0057F30F10512
:10091800FF30F2050310F30C7308F500F601F70138
:100928001030F535F60DF70D890B952C7508F00488
:100938007608F1047708F204740803190800F2171E
:10094800080040019801990180309A003F309200D8
:10095800FE3093007F30940067307E01CE00FF3078
:10096800C3003F30B800E501C401B901CF01BA01A5
:10097800C501D00100308B1B01304101B9008B1338
:1009880055307D018F00AA308F000F104508C039FF
:100998001338C5004608C0391438C60015307E0122
:1009A800A3000B3098001630A4007D011C08C03944
:1009B80013389C0055308F00AA308F000F14410166
:1009C800391CE82C8B1708008B13080055304001A0
:1009D800EA006A08EB004E010F1043010C084001C1
:1009E800EA006A08EB0043010F1D0B2D8F1A111F37
:1009F800042D40016B08EA006A08D5000330202D59
:100A080040016B08EA006A08D5000130202D8F1AD2
:100A1800142D40016B08EA006A08D5000030202D2B
:100A280040016B08EA006A084101B80040016B0800
:100A3800EA006A08D500023080312C2043011016E4
:100A48000800FD01F91F2F2DF809F909F80A031903
:100A5800F90AFD01FD0A7808F0007908F100F201B1
:100A68008E30FB007B08F3007D08FC007C08F40056
:100A7800843141247008F8007108F9007208FA00FE
:100A88000800F3007308F200F20DF20D41011D0891
:100A98007206033972069D001D14000041019D1461
:100AA8009D18542D1C08F1001B08F0000800843123
:100AB800A524853185318C25853185316D25853194
:100AC8008531A825853185317E25853185319F255C
:100AD8000800803043018F002630900001309100DB
:100AE80008309200FE308E0044308D004E010F1009
:100AF8001914080045018E01013090008F01910101
:100B080009308D008C014E0190108531B625080002
:100B1800623051018D008F019101023093009001E4
:100B28009201080085315B2585318B170B17400131
:100B380098139A179B2D013041019D0002309E00A9
:100B48009F019B019C0108008030460196000230FD
:100B58009500403094000800640080010131890B41
:0C0B6800B12D003445018E1708005534F3
:020000040001F9
:0A000E00EC3FFF3F9F3FFF3FFF3F25
:00000001FF
