:0400000080312A28F9
:100008007E14803140017F08EA000B1F13284E013F
:1000180019180F1C13288531E825803125280B1F56
:100028001D284E01191A0F1E1D288631B826803149
:1000380025280B1F25284E01991A8F1E2528863141
:10004800232640016A08FF007E10090080312C2811
:10005800873147278031EF004101873145278031BB
:10006800EA00873146278031EB004001EB01EC01C3
:10007800ED01EE01A0308400003085004A30873160
:100088003F277E1040018731372F4001E000562A74
:100098005508D6005608EB00DF296030F000FC3028
:1000A800F1004430F2008631F426FF304001D600DA
:1000B80056084101E700080020304001D6005608E4
:1000C8004101E70001304001E6000030E700670821
:1000D800D7006608D6000E30D736D60C890B7028A4
:1000E8005608D80058084101E10040016708D700C8
:1000F8006608D6000630D800570DD70CD60CD80B9A
:1001080080285608D90059084101E000080023302A
:100118004001D60056084101E70001304001E600E1
:100128000030E7006708D7006608D6000630D736E3
:10013800D60C890B9B28FF305605E600033057057F
:10014800E7006630DA009630DB004030DC009A3099
:10015800E100D930E2004030E3006708F9006608A2
:10016800F80086319826803178084001AA0079087D
:10017800AB007A08AC00C030A7007F30A80044303C
:10018800A90084310E24803140012708BA002808CC
:10019800BB002908BC005A08FB005B08FC005C088F
:1001A800FD006108F8006208F9006308FA0082316E
:1001B8006522803178084001AA007908AB007A08E6
:1001C800AC006108A7006208A8006308A900843190
:1001D8000E24803140012708B7002808B8002908F4
:1001E800B90083315A23803140013708DD003808CF
:1001F800DE003908DF005D08BA005E08BB005F0852
:10020800BC00FF30B7009A30B8004630B9008331DF
:100218005A23803140013708C7003808C800390818
:10022800C9008431B72440014808E5004708E400C4
:100238006508D60056084101E10040016408D6006F
:1002480056084101E000080024304001D600560855
:100258004101E600E501E50A080052304001D600F8
:100268005608EF005230D60056084101E700E40175
:1002780040016F0886315226080081304001D600BF
:100288005608EF008130D60056084101E700863154
:100298007626080062304001D6005608EF0062302A
:1002A800D60056084101E700E40140016F08863195
:1002B8005226080091304001D6005608EF009130D0
:1002C800D60056084101E7008631762608007230CC
:1002D8004001D6005608EF007230D600560841019A
:1002E800E700E40140016F08863152260800A1307A
:1002F8004001D6005608EF00A130D600560841014B
:10030800E70086317626080082304001D60056087C
:10031800EF008230D60056084101E700E4014001B1
:100328006F08863152260800B1304001D6005608C1
:10033800EF00B130D60056084101E7008631762635
:10034800080092304001D6005608EF009230D600DF
:1003580056084101E700E40140016F088631522642
:100368000800C1304001D6005608EF00C130D60061
:1003780056084101E700863176260800A230400180
:10038800D6005608EF00A230D60056084101E70013
:10039800E40140016F08863152260800D13040013F
:1003A800D6005608EF00D130D60056084101E700C4
:1003B80086317626080040016B08203A0319602828
:1003C800033A03198B28073A03192829763A03199F
:1003D8003129303A03194E29103A03196B29F33A97
:1003E80003194129033A03198829133A03195E2985
:1003F800033A0319A529333A03197B29033A031948
:10040800C229133A03199829703A0319B529103AE1
:100418000319D2292E3A03195128642A08004101E8
:10042800670843018C0008004101600843018C0003
:100438004101E00108004101610843018C004101CC
:10044800E10108004101620843018C004101E20119
:1004580008004101630843018C004101E3010800E1
:1004680041014E0843018C004101E60108004001AA
:100478006B0843018C00080040016B08013A03191E
:10048800182A033A03191F2A013A0319262A073A98
:1004980003192D2A203A0319342A013A0319132A79
:1004A8003B2A08006008003A0319642A013A031934
:1004B800402A033A03194C28013A0319642A642A8A
:1004C800080078084001A0007908A1007A08A20075
:1004D8000310210D220DA3002308A6007B08A0000D
:1004E8007C08A1007D08A2000310210D220DA300A5
:1004F8002308A500260803198D2A250826020318B3
:10050800942A2603FF3A2507A00019302002031C6D
:10051800942A7B08F8007C08F9007D08FA00080096
:10052800250803190800260825020318A32A25030D
:10053800FF3A2607A00019302002031808000630E9
:10054800A0002008A400FA1BA417FD1B2417F91704
:10055800FF30F805FF30F9050030FA05FC17FF30C9
:10056800FB05FF30FC050030FD05250826020318B1
:10057800DF2A0130FB35FC0DFD0D890BBE2A013049
:10058800A502250826060319DA2A0130A402240840
:1005980007390319DA2ABD2A0130FA36F90CF80CA2
:1005A800890BD12A0130A0002008A60726082506B5
:1005B8000319042BD02A260825020318042B01301E
:1005C800F835F90DFA0D890BE42A0130A602250841
:1005D80026060319002B0130A40224080739031941
:1005E800002BE32A0130FD36FC0CFB0C890BF72AA3
:1005F8000130A0002008A50726082506031DF62AB5
:10060800A41F162BFF30F806FF30F906FF30FA0654
:100618000130F807003003180130F90700300318DB
:100628000130FA07241F282BFF30FB06FF30FC0699
:10063800FF30FD060130FB07003003180130FC07CE
:10064800003003180130FD07A4017808FB0779087A
:10065800FC3D7A08FD3DFD1F432BFF30FB06FF30B4
:10066800FC06FF30FD060130FB070030031801309F
:10067800FC07003003180130FD07A401A40A7B0819
:10068800F0007C08F1007D08F2002608A000200890
:10069800F3002408A1002108F40085313E257008E4
:1006A800F8007108F9007208FA00080040013708DC
:1006B800BD003808BE003908BF0003103E0D3F0DCD
:1006C800C0004008C1004108031D712B0030B7006D
:1006D8000030B8000030B90008003A08BD003B08F7
:1006E800BE003C08BF0003103E0D3F0DC00040088F
:1006F800C6004608031D872B0030B7000030B8003D
:100708000030B900080046087B3EBD003D08C1071F
:100718003708BD003808BE003908BF001030BF36A2
:10072800BE0CBD0C890B932B3D08C0004008C600C9
:100738003A08BD003B08BE003C08BF001030BF3679
:10074800BE0CBD0C890BA32B3D08C0004008C60693
:100758008030BD003D08C605B817BB17FF30BA0585
:10076800FF30BB050030BC050030C2000030C300BC
:100778000030C4000730BD003D08C500371CCA2B37
:100788003A08C2073B08C33D3C08C43D0130B936AE
:10079800B80CB70C890BCB2B0130BA35BB0DBC0D8F
:1007A800890BD12B0130C502031DC22B0930BD00B6
:1007B8003D08C500371CE62B3A08C2073B08C33D75
:1007C8003C08C43D0130B936B80CB70C890BE72B8F
:1007D8000130C436C30CC20C890BED2B0130C502A5
:1007E800031DDE2B4208F0004308F1004408F20024
:1007F8004108BD003D08F3004608BE003E08F4006D
:1008080085313E2570084001B7007108B8007208AC
:10081800B900080040012A08AD002B08AE002C08DA
:10082800AF0003102E0D2F0DB0003008B5003508AD
:10083800031D252C0030A7000030A8000030A900B7
:1008480008002708AD002808AE002908AF000310EB
:100858002E0D2F0DB0003008B6003608031D3B2CB6
:100868000030A7000030A8000030A90008000030C0
:10087800B2000030B3000030B40089303607AD0054
:100888002D08B5022A08AD002B08AE002C08AF00D1
:100898001030AF36AE0CAD0C890B4D2C2D08B000C6
:1008A8003008B6002708AD002808AE002908AF00B8
:1008B8001030AF36AE0CAD0C890B5D2C2D08B00096
:1008C8003008B6068030AD002D08B605AB17FF30EE
:1008D800AA05FF30AB050030AC05A817FF30A70507
:1008E800FF30A8050030A9051830AD002D08B1006B
:1008F8000130B235B30DB40D890B7D2C29082C02BB
:10090800031D8C2C28082B02031D8C2C27082A0277
:10091800031C952C2708AA022808AB3B2908AC3BE6
:1009280032140130AA35AB0DAC0D890B962C013071
:10093800B102031D7C2C3208F0003308F1003408A2
:10094800F2003508AD002D08F3003608AE002E0879
:10095800F40085313E2570084001A7007108A80001
:100968007208A900080040014708CB004808CC00DD
:100978004908CD0003104C0D4D0DCE004E08D40093
:100988005408031DD02C0030CA000030C9000030C4
:10099800C8000030C70008004708CB004808CC0052
:1009A8004908CD001730CD36CC0CCB0C890BD72C91
:1009B8004B08CE004E08CF00C817FF30C705FF30E0
:1009C800C8050030C9054708D0004808D1004908C3
:1009D800D200D3018E30D402D41F0E2D5408803A91
:1009E8008F3E0318002D0030CA000030C9000030C7
:1009F800C8000030C70008000130D336D20CD10C33
:100A0800D00C890B012D0130CB004B08D4070319FA
:100A1800272D002D18305402031C242D0030CA0045
:100A28000030C9000030C8000030C700080001309D
:100A3800D035D10DD20DD30D890B1C2D0130D40228
:100A48005408031D1B2D4F080319352DD009D10952
:100A5800D209D309D00A0319D10A0319D20A0319F2
:100A6800D30A5308CA005208C9005108C8005008E0
:100A7800C700080073080319462D72087104700432
:100A8800031D572D0030F0000030F1000030F20057
:100A980008000130F5007508F3070130F236F10C53
:100AA800F00C890B522DFE3072050319702D4D2D57
:100AB8000130F5007508F3070130F007003003181E
:100AC8000130F107003003180130F2070130F23627
:100AD800F10CF00C890B6B2DFF30720503197D2D7D
:100AE8005C2D0130F3020130F035F10DF20D890B68
:100AF800782DF11B832D023073020318752D73189E
:100B08008B2DFF30F0057F30F105FF30F205031023
:100B1800F30C7308F500F601F7011030F535F60D02
:100B2800F70D890B922D7508F0047608F104770803
:100B3800F204740803190800F2170800400198012C
:100B480099019A01FF309200FF3093003F309400E2
:100B580087307E01CE00FF30C300FF30B800E501CA
:100B6800C401B901CF01BA01C501D00100308B1B06
:100B780001304101ED008B1355307D018F00AA3003
:100B88008F000F104508C0391338C5004608C03912
:100B98001438C60015307E01A3001630A4007D016C
:100BA8004B08C0391538CB000F307E01A6005530F0
:100BB8007D018F00AA308F000F1441016D1CE62DB6
:100BC8008B1708008B13080055304001E8006808AF
:100BD800E9004E010F1043010C084001E8006808C5
:100BE800E90043010F1D092E8F1A111F022E400123
:100BF8006908E8006808D50003301E2E400169081E
:100C0800E8006808D50001301E2E8F1A122E400108
:100C18006908E8006808D50000301E2E4001690800
:100C2800E80068084101EA0040016908E80068082E
:100C3800D5000230803149204301101608004201D6
:100C48009D1C282E1D121D161908F00040016C0865
:100C5800A03E86008701700881000130F00070080E
:100C6800EC076C08FF3EA03E860087010108F000F3
:100C780041016408C83E8600870170088100013080
:100C8800F0007008E407203040016C020318EC0102
:100C98000130F00070084101E8070800F100410147
:100CA8006C080319532E4E01191A5E2E7108420161
:100CB8009A00732E19127108F00040016E08C03EA8
:100CC80086008701700881000130F0007008EE0787
:100CD80008306E020318EE0101304101EC024E01AA
:100CE8001916080041014808F0007008D8004908A2
:100CF800F0007008D9004A08F0007008DA004B08C4
:100D0800F0007008DB005908F0007008E0005A088D
:100D1800F0007008E1005B08F0007008E200580875
:100D2800F0007008E3000800FD01F91FA22EF80981
:100D3800F909F80A0319F90AFD01FD0A7808F00013
:100D48007908F100F2018E30FB007B08F3007D0882
:100D5800FC007C08F40085313E257008F800710815
:100D6800F9007208FA000800083041016C02031803
:100D7800D42E40016D08C03E86008701010842015B
:100D88009A000130F00070084001ED0708306D024C
:100D98000318ED010130F00070084101EC0708006C
:100DA8004E01191208004E01991219120830420119
:100DB8009F0090309D0024309E0019309B009C01BC
:100DC8004001EE01ED0108304101ED006D08EC0035
:100DD8004001EC014101E901E8014E0199160800C2
:100DE8007008F4007108F5007208F600F801F801BF
:100DF80004307802031808007808743E86008701DA
:100E08000108F3007808E03E860087017308810036
:100E18000130F3007308F807FC2E43018F012630D8
:100E280090000130910008309200FE308E0044306E
:100E38008D004E010F10191408008531A225873145
:100E480087312D2787318731112787318631D7267A
:100E58000800623051018D008F019101023093002A
:100E68009001920108008731212787318B170B17D2
:100E780040019A133E2F640080010131890B402FF5
:080E88000034553401342A3412
:020000040001F9
:0A000E00EC3FFF3F9F3FFF3FFF3F25
:00000001FF
