:04000000803114280F
:100008007E14803140017F08F0008B138E134E015F
:100018000F180F108B1770084001FF007E100900A1
:10002800803116287E10400180314A2840019413FF
:10003800F301F4017408803AF10080307102031D65
:100048002728053073020318080040018E13153065
:10005800F2004B30F100BE30890B3028F10B30280C
:10006800F20B3028003240018E171530F2004B3069
:10007800F100BE30890B3E28F10B3E28F20B3E28DA
:1000880000320130F3070030F43D1E2880316D2026
:10009800803180311A2080314001941514162030A7
:1000A80043018D0080308F00363090008B01153071
:1000B800F6004B30F500BE30890B6028F50B602840
:1000C800F60B602800324E0119140F100B178B170E
:0E00D8006C2851011308F8390638930008000F
:020000040001F9
:0A000E008C17FF3F9F3FFF3FFF3FAD
:00000001FF
