:020000040000fa
:080000000402040000000000ee
:020000040000fa
:1004000084020400000000000f922000807f220080
:100410000001880000000000050007000c00070034
:100420000e1f0200000000000040da000000fe0085
:100430004440a900401020000000e000030032000a
:1004400000002000a00188004440a8000000060031
:1004500000842200010020001600370062004000e6
:10046000e0804800910188009001ba0062004000dd
:10047000e0804800910188009002ba0062004000cc
:10048000e08048000002eb006028e10005003a002f
:100490008301e90007003300038009000059eb00e5
:1004a000040037006128e100010032000082eb0007
:1004b00005000700910188001001ba000200e00069
:1004c000e6ff3a00000005009101880080027800f4
:1004d00062004000e08048003559ba008301e9001d
:1004e000080032002559ba008301e90005003200f6
:1004f0000400e000f4ff320015d9ba008301e900de
:10050000f1ff3a0000000600881f7800020478001e
:1005100014000700080040004f04780000000600a7
:100520000000fa00881f7800000478003fb99700a7
:10053000ea81570080007800402820001000070062
:10054000800078000000e000020035000040eb0071
:1005500000f47800010078004f0478000080fa0071
:1005600000000600800178000200e0000300320075
:10057000b15978000201e900fdff3a0000000600d1
:100580006200fa00889fbe008a9fbe000004be0081
:1005900002057800830078006a805700ad000700ec
:1005a000f88f9f0089979f000000eb00909f9f00ad
:1005b0001a80fb008005fb000000ea00cf04de008b
:1005c0000904780050022000808f550001003a0095
:1005d0000904e9000800e0000c0034000f909700c7
:1005e000080178008a007800ff8997000300010065
:1005f00080979f008080eb000000e00090003200b8
:100600001f98970008004000909f9f000905450033
:1006100050022000808f5500040032000b00e000e3
:10062000e3ff3a009f989700850037000000eb0039
:10063000f0979f00e0979f00d0979f00c0979f0082
:10064000b0979f00a0979f00b09f9f0009003700c0
:10065000e08c2000008050000000d000418d200080
:1006600001004000bf98970090807000b19f9f00ec
:100670000a05e8009a00fb00e08c200077000700e4
:10068000800078000000e000f1ff3a00a0c2b30053
:100690009a4f10000e003a003fb897000080e90022
:1006a000b0bf9f0010007800a09f9f000000e000f6
:1006b00005003d000000ea00a09f9f003f989700c2
:1006c0000020a000b09f9f000a05e800110037003d
:1006d000a19f9f000b003700af989700f0ff270005
:1006e000808f5000060032006a09b9001a00fb0032
:1006f0000200400001fd2f0001004000a09f9f006c
:100700000a05e8001a00fb005c0007000000e0009a
:10071000f1ff3a00e0c2b3009a4f1000030032002c
:100720000080eb00809f9f001c003700a0c2b30038
:10073000da4f100007003a003fb897000080e90048
:10074000b0bf9f0010007800809f9f000a05e8005e
:10075000120037000000eb00809f9f000b00370065
:100760008f989700f0ff2700808f5000060032001e
:100770006a09b9001a00fb000200400001fd2f00c9
:1007800001004000809f9f000a05e8001a00fb005e
:100790003a0007000000e000f1ff3a009a00fb0079
:1007a000609120002d0007008040eb000000e00079
:1007b00001003200ba407800817f9f0080c6b300fc
:1007c00080cf500004003a009acf100002003a0097
:1007d00066405000070037008f789700c0c6b3000e
:1007e00080cf500005003a009acf100003003a0075
:1007f00065404000807f9f000a05e800a0fb2f00b5
:10080000008447003a41780088017800ea80570068
:1008100060f92f000f0040001e0007000000e000fc
:1008200006003a008800780060f92f000f004000b1
:10083000c80107000000e0005dff3d008080eb0084
:10084000010078004f05be004f04be000080fa0092
:1008500000000600010878000000060090cf10009c
:10086000050032001004e00001003a00000005001d
:10087000d0cf1000fbff3a00000006000003b100db
:10088000030035009000b10001003c00100005009d
:1008900000000500889fbe008a1f780000047800d1
:1008a0000102780002457800830478000200fb0012
:1008b000cf80de005002b1000180b100320520007f
:1008c000820f5000e08f580095013e00006001004b
:1008d0008d013700920137009101370090013700f8
:1008e0008f0137008e0137008d0137008c013700f2
:1008f0008b0137008a0137008901370088013700f2
:1009000087013700860137008501370084013700f1
:1009100083013700820137008101370080013700f1
:100920007f0137007e0137007d0137007c013700f1
:100930007b0137007a0137007901370078013700f1
:10094000ed0037007601370075013700740137007c
:10095000e9003700e8003700e70037007001370092
:100960006f0137006e0137006d0137006c013700f1
:100970006b0137006a0137006901370068013700f1
:1009800067013700660137004b013700640137000b
:1009900063013700620137006101370080003700d2
:1009a0005f0137005e0137005d0137005c013700f1
:1009b0005b0137005a0137005901370058013700f1
:1009c000cd00370056013700150037001c003700f6
:1009d000c9003700c8003700c70037005001370092
:1009e000170037004e0137004d0137004c0137002a
:1009f0004b013700ec003700690037001f0137005a
:100a000047013700460137002b013700440137000a
:100a100063003700420137004101370060003700b2
:100a20006e01440012007800808141009480e9004a
:100a3000010a78000009e800914978004101370077
:100a4000a8609000c0c6b30080cf50000a003a00f2
:100a50009400780064805000000a78001000be0006
:100a60004f89de00cf91de000002be000203780055
:100a7000820378001500370010c7b30080cf500004
:100a800002003a00140178000400370014017800d5
:100a9000a0c6b30080cf500005003a0068005100a6
:100aa000000a78003002be002003be0007003700b5
:100ab0000280e900000a7800100078000002780047
:100ac000cfa2de000503780086037800049cbe00f8
:100ad0000694be00a860900080c6b30080cf50008e
:100ae0000f00320020c6b30080cf500006003a004d
:100af000184078000000fb00cf80de000101780084
:100b0000820178000a00370040c7b30080cf500050
:100b1000030032006640400080cf500006003a00db
:100b200018007800cf80de00010178008201780093
:100b3000009cbe000294be003800be002801be002a
:100b4000e00f5000e08f5800e00f5900e08f59008f
:100b500004003d006e01440092007800d0c2b30052
:100b60000c003700081090000018a30004003200a9
:100b70006e01440092007800b0c2b3000500370057
:100b80000008a300570032006e0144009200780074
:100b900000c2b30080f478000109e800510037007a
:100ba000a8609000c0c6b30080cf500006003a0095
:100bb0009400780064805000000a78001002be00a3
:100bc0006033b8001500370010c7b30080cf500065
:100bd00002003a0014017800040037001401780084
:100be000a0c6b30080cf500005003a006800510055
:100bf000000a78003002be002003be000700370064
:100c00000280e900000a78001000780000027800f5
:100c1000050020000600200007002000049cbe0004
:100c20000694be00a860900080c6b30080cf50003c
:100c30000f00320020c6b30080cf500006003a00fb
:100c4000184078000080fb00010020000200200016
:100c5000030020000a00370040c7b30080cf5000d7
:100c6000030032006640400080cf500006003a008a
:100c7000180078000100200002002000030020007e
:100c8000009cbe000294be00081090000038a30033
:100c9000140032003800be002801be00e00f5000f2
:100ca000e08f5800e00f5900e08f59000d0032002e
:100cb00080c7b300804f55000300320080c5b300e9
:100cc000804f550007003a006e0044009000780005
:100cd00002c3b30082f478008100e8008af478004f
:100ce0000108e8007800900000804400600498004b
:100cf0008a4078006d003700a860900014017800e9
:100d0000c0c4b30080cf500005003a006800510015
:100d1000000a78005001be004000be000400370009
:100d200064005100000a78001000be00c8070700e8
:100d3000009cbe000294be00380090000000e0005d
:100d400004003d006e01440092007800d0c2b30060
:100d50000c003700081090000018a30004003200b7
:100d60006e01440092007800b0c2b3000500370065
:100d70000008a300050032006e01440092007800d4
:100d800000c2b30080f478000109e8007800900008
:100d900000804400600498008a40780008007800d1
:100da0003a01070067003700286090008000fb00d0
:100db000c0062000808f5000230032000a003c0053
:100dc00064005000808f50002600320004003c0078
:100dd00066005000808f50000b0032002100370069
:100de000a00620000500370040072000808f50003b
:100df0001c0032001b003c0063005000808f50003c
:100e000007003200170037001480e900000a78005c
:100e100010007800485c90000848780049003700ce
:100e20001480e900000a7800100278006808900039
:100e3000cf80de000101780082017800009abe00b8
:100e40000292be003f0037001480e900000a7800db
:100e50001001780068089000cf80de000089be0095
:100e6000380037001480e900000a7800100078008c
:100e7000680c900008087800320037001480e90000
:100e8000000a780010007800cf80de0001017800b1
:100e900082017800009cbe000294be0078009000a1
:100ea000008044006004980081c7b3000800780007
:100eb0004d030700230037001480e900000a780082
:100ec0001000780060049800580990000200e000cb
:100ed00002003d00f6030700090037008000eb0028
:100ee000fa030700800078000000e00003003200f1
:100ef0006800900000805000010037005808900002
:100f0000100c98000f0037006e014400920078002a
:100f100050c2b30080f178000109e80009003700f1
:100f2000ee00440011007800808144000a427800fd
:100f30008008e8000a04e00001003a0054c2b3004f
:100f4000844978000000eb004f0578004f04be0094
:100f5000000006000400fa00889fbe008a9fbe00c1
:100f60008c1f78000004780001067800700890005b
:100f7000f800900001005000880890000100500027
:100f80009808900001005000a8089000010050004f
:100f9000b808900001005000c8089000810550007a
:100fa0000002220090bf9f0000032300a0bf9f000b
:100fb000081090000028a30018003a000b00e00081
:100fc000160034000b0578008a047800e20f550003
:100fd00001003600290020000900e0000c00340068
:100fe00058009000c801900009017800ee80570079
:100ff00003000100500498008080eb000000e00036
:101000009c0032006808900009004000600c9800c5
:10101000090555004240a900ebff3c007801900013
:101020000200e0000c00340058009000c80190005d
:101030008c00780003000100500498008080eb00d1
:101040000000e0008b00320068089000f80090007b
:1010500001004000600c9800080890000000e000cb
:1010600016003400000578008a047800e20f55006d
:1010700001003600290020000900e0000c003400c7
:1010800058009000c801900009017800ec805700da
:1010900003000100500498008080eb000000e00095
:1010a000740032006808900009004000600c98004d
:1010b000090555004240a900ebff3c0018099000cb
:1010c0000200e0000c003400e8009000580090009e
:1010d000c801900003000100500498008080eb00dc
:1010e0000000e0006300320068089000980890005b
:1010f00001004000600c9800280890000000e0000b
:1011000016003400000578008a047800e20f5500cc
:1011100001003600290020000900e0000c00340026
:1011200058009000c801900009017800ec80570039
:1011300003000100500498008080eb000000e000f4
:101140004c0032006808900009004000600c9800d4
:10115000090555004240a900ebff3c00380990000a
:101160000200e0000e003400e80090001808900033
:101170008080400058009000c801900003000100ea
:10118000500498008080eb000000e000390032003d
:1011900068089000b808900001004000600c9800ba
:1011a000480890000000e0001600340000057800b8
:1011b0008a047800e20f5500010036002900200063
:1011c0000900e0000c00340058009000c8019000b5
:1011d00009017800ec8057000300010050049800da
:1011e0008080eb000000e0002200320068089000e0
:1011f00009004000600c9800090555004240a90014
:10120000ebff3c00081090000028a30018003200fb
:101210000b00e000160034000b0578008a0478000b
:10122000e20f550001003600290020000900e0000f
:101230000c00340058009000c801900009017800ab
:10124000ee80570003000100500498008080eb00fe
:101250000000e0000700320068089000090040002c
:10126000600c9800090555004240a900ebff3c00c6
:101270008000eb00010078004f0678004f05be00ab
:101280004f04be000080fa0000000600ef04b0002a
:10129000889fbe008a9fbe008c9fbe008e1f780074
:1012a000c0af9f00a1df9f0060fa2f000f00400039
:1012b000e0af9f00cfaa97005503be004502be00d5
:1012c00084af9f0095af9f00a6af9f00b7af9f0070
:1012d00010c6b30080cf50001600320010c4b30017
:1012e00080cf5000130032004fab9700560890009b
:1012f0000000e00003003d0060002000500b98005b
:101300000c0037000000e0000a003a0070c6b3008d
:10131000afdb970080cf53000300320070c4b300ee
:1013200080cf530003003a0010002000cfa89700a0
:10133000d0089800cfa89700e2fc2f000280470059
:10134000eb02070080017800e20f500014003a0021
:10135000cfa99700e300900030002000900998008a
:1013600010c6b3002fda9700804f52000a003200f7
:1013700064404000804f5200070032000040e80007
:10138000804f520004003200428e20000040e800ee
:10139000804f520017003a00828e2000150037005f
:1013a0000000e00018003400cfaa9700e50090008c
:1013b00030002000900a980010c6b3002fdb970081
:1013c000804f53000a00320064404000804f5300b9
:1013d000070032000040e800804f53000400320054
:1013e000c28e20000040e800804f530001003a0008
:1013f000028f2000b258780002007800b0587800c0
:1014000090487800f201370014c6b300afdb9700b4
:1014100084cf53000300320010c4b30080cf5300c8
:1014200010003a004fa89700ec004000110178002e
:1014300000c3b300005978008208e80080c7b300f9
:10144000afd8970084cf50000100320080c5b300b0
:10145000004978004fa99700720090000080e800d2
:10146000700198000300e00003003a008006eb00e2
:10147000fda79f00d001370011c6b300afd9970078
:1014800081cf51000300320010c4b30080cf51005f
:10149000ad003a004e8f20002fda9700814f5200a6
:1014a000010032005e902000cfaa970055089000fe
:1014b0008006e8000000e00001003d001d02200061
:1014c0000d06e8004fab97003604be002605be00af
:1014d0006022b8006033b8000fa897009fa897005b
:1014e0002fa99700bfa99700f80507000000e000aa
:1014f00001003d000bf0a20088af9f0099af9f0054
:10150000aaaf9f00bbaf9f007fa097006400500070
:10151000f0a79f00efab9700805beb00e7af9f0069
:101520003f003700c20120000300200001fd2f0012
:10153000018047009c0207000faa97009faa97000e
:101540002fab9700bfab9700f4af9f0085b79f000c
:1015500096b79f00a7b79f000400be000601be001b
:10156000df0507000004be000005be006706560048
:101570004240a9000c003400050607000002be002e
:101580000203be007fa897008fb097001fb197009d
:10159000afb197000106070080af9f0091af9f0099
:1015a000a2af9f00b3af9f00efaa9700e78242006f
:1015b000e5af9f0070002000e00f5400e08f5c005a
:1015c0000d003400600020006fab97006f63650072
:1015d000e6af9f00cc5bdd004455de000a8573005a
:1015e000c4ddde00e00f5500e08f5d000200340036
:1015f0000000e900f4ff3b000000e90005003300b3
:10160000efa897008060eb00e1af9f000000e900c9
:10161000fbff3b006fa9970067014100e2af9f000d
:101620000c00e000090034006022b8006033b8000c
:101630000fa897009fa897002fa99700bfa9970010
:10164000d80507000000e000b6ff3c00efa99700b6
:1016500064fa2f000f024200048051000006e900e6
:1016600075fa2f0085824700e5af9f008d0f560069
:1016700001003d008c0678000d00e0002b003500d5
:101680008c8f560005003d006fab970066c07e0052
:10169000f2c0b300e74f500001003c000041eb00f6
:1016a0008d00e900efab970067c07800824f5000d3
:1016b00006003a008d06e9008100e900efa99700d5
:1016c00063c07800824f5000faff3200ef4f5100a4
:1016d00004003a006faa970064c078000040e80058
:1016e00000f278000100e00007003d00efaa97003b
:1016f0008502e900e5af9f008d06e8007fa0970016
:1017000064004000f0a79f008d00e900070033004f
:101710006fab970066c078000000fb006e40780059
:1017200000f378008100e900f9ff3b00cfab9700a0
:10173000570890000000e0001f013d000d00e90087
:10174000d00b98001c0137000fac97009fac97009e
:101750002fad9700bfad97006022b8006033b8008e
:101760000800be000a01be00580507000000e000a6
:1017700005003d000bf0a20088af9f0099af9f00cd
:10178000aaaf9f00bbaf9f007fa0970072592700b0
:101790000280b900026a28001300200086050700b5
:1017a000e4005000f1a79f001d003b006380100083
:1017b000c1ff2f00010460000800ea00f0a79f00ad
:1017c0008004eb000800e000470034000808a30094
:1017d0000e0032006848b800428620000200400037
:1017e0003002be002003be000fa897009fa89700fc
:1017f0002fa99700bfa997007e05070080af9f0023
:1018000091af9f00a2af9f00b3af9f000884d100ab
:101810008904e8000800e000ecff3c0032003700db
:101820000100e000300034006022b8000600200013
:1018300007ff2300b4b79f00c5b79f00d6b79f002e
:10184000e7b79f00c0ff2f0000806000f0a79f0057
:10185000000478008004eb00160034000808a300a0
:10186000100032006848b80045862000050040009e
:101870003002be002003be003fb09700cfb09700fb
:101880005fb19700efb197005a0507000002be0054
:101890000203be00b4b79f00c5b79f00d6b79f0034
:1018a000e7b79f000884d1008904e8000800e00041
:1018b000eaff3c003fb29700cfb297005fb39700ba
:1018c000efb397000fa897009fa897002fa9970044
:1018d000bfa99700bc05070080af9f0091af9f0094
:1018e000a2af9f00b3af9f004fab9700d608900008
:1018f00060c6b300afdb970080cf53000400320016
:101900006687400060c4b30080cf530003003a00f4
:101910007fa09700008040006a074000f30f570047
:10192000010034003e01200000c3b300efa897007f
:1019300080587800e1af9f003a0037000800be00f1
:101940000a01be00e60407000006be00f0b79f00d3
:1019500081bf9f00680757004240a9000e00340075
:101960000b0507000002be000203be000800be0017
:101970000a01be00090507006022b80046782d0064
:10198000771924001b05070080af9f0091af9f00cf
:10199000a2af9f00b3af9f00efa99700e88141007d
:1019a000e3af9f0088002000e00f5600e08f5e004c
:1019b0001100340078002000a20020000300200065
:1019c0007fb097008fb89700ed0107006faa9700ce
:1019d00005c3b30005624100e4af9f00f0b79f006c
:1019e00081bf9f00e00f5000e08f580002003400dc
:1019f0000804e900f0ff3b000804e900060033009a
:101a000000c3b300efab970080637800e7af9f009f
:101a10000804e900faff3b006fa897006800400047
:101a2000e0af9f000e00e0000b0034000fac970009
:101a30009fac97002fad9700bfad97006022b80014
:101a40006033b8000800be000a01be00d5040700dc
:101a50000000e000b9ff3c00efa8970062fa2f00f9
:101a60000f014100028050000007e90073fa2f00c7
:101a700083814700e3af9f007fa09700670040008d
:101a8000f0a79f0001c3b30093cf10000a003a00f3
:101a90000e07e9007fa097000000e900f0a79f0073
:101aa0006faa97000402e800e4af9f001442780098
:101ab000814f5200f6ff3200cfaa9700d508900060
:101ac00060c6b3002fdb9700804f53000300320045
:101ad00060c4b300804f530004003a007fa0970019
:101ae000008040008006e8000a0037008001eb001b
:101af00050c6b300afdb970080cf53000300320025
:101b000050c4b30080cf530001003a0013002000fe
:101b1000838640008d0f570001003d008e0678003f
:101b20000d00e000240035008e8f560006003d00b9
:101b30006fa89700e0c07e0092c3b30040c3b3001b
:101b400080cf500001003c0002c3b3008d00e900cb
:101b5000efa9970063c07800824f500006003a005a
:101b60008d06e9008100e9006faa970064c0780043
:101b7000824f5000faff320090c3b300804f5100f3
:101b800004003a00efaa970065c078000040e80022
:101b900080f278000100e00007003d006fab970085
:101ba0000603e900e6af9f008d06e8007fa09700de
:101bb0000000e800f0a79f007fa297008d01780049
:101bc0006fa99700afd897004fa89700830107002f
:101bd0004f0778004f06be004f05be004f04be0001
:101be000ef04b100000006006f02b000889fbe0045
:101bf0008a9fbe008c9fbe008e1f780080067800f2
:101c0000d08b2000b0b79f0080c5b30080cf5000bc
:101c100002003200c28a2000b2b79f008300200079
:101c2000c3b79f00f0c6b30080cf50000a00320057
:101c30006940400080cf500005003200a400200021
:101c4000c4b79f0080c5b30080cf500002003a00a7
:101c500000012000c0b79f008e0120003d04be009f
:101c60002d05be0040c6b30080cf500003003200f7
:101c70006540400080cf50000a003a00e00f540059
:101c8000e08f5c00e00f5d00e08f5d0005003d002f
:101c90000800be000a01be00250507000205be00bf
:101ca0000004be00e00f5400e08f5c00e00f5d0018
:101cb000e08f5d0003003a005d0890000000e00046
:101cc0000c0032007e012000cfb0970001027800a6
:101cd000cfa2de0005037800860378000800be006e
:101ce0000a01be00a80507003fb2970064407800d3
:101cf000d0e79f004fb09700cf80de000101780051
:101d000082017800d0b79f00e1b79f00f2b79f0033
:101d100083bf9f000203be000002be000800be0099
:101d20000a01be0091050700809ebe008296be009b
:101d3000e00f5000e08f5800e00f5900e08f59008d
:101d4000220034000e00e000200034003d00be0000
:101d50002d01be005fb29700efb297007fb39700ee
:101d60008fbb97008c0507000205be000004be0073
:101d70000e07e900e1fc2f008f80400001064700bc
:101d80005fb29700efb297007fb397008fbb9700c9
:101d90000800be000a01be001c0607001d0010005e
:101da0003fb19700624e7800889ebe008a96be00c2
:101db000e00f5400e08f5c00e00f5d00e08f5d00fd
:101dc000020034000e00e000e0ff3c00cfb19700bd
:101dd000e88f510010003a000d1090000038a30069
:101de0000d003200f70f570006003e00e4fc2f0004
:101df0000e024200e4c07f0000c3b30080cf500059
:101e0000050032000e07e90000c3b300e1fc2f001b
:101e10008e80400080f07f0078011700920e9800bd
:101e20006d009000e3fc2f008f8141008e80410007
:101e3000ccf907001d0e90005d089000800f560041
:101e400006003d000c005000800e98000d10900020
:101e50000040a100801698000f0037000000e0004d
:101e60000d003d000d10900074006000f00f500058
:101e700009003a007d089000fd009000010050002c
:101e80008d089000010050000c0750004240a9004e
:101e9000010034008e0e98004f0778004f06be00f8
:101ea0004f05be004f04be006f02b10000000600e7
:101eb000800078001004e000020032005104e000cd
:101ec000feff3a0000805000000006000200e00023
:101ed0000500320090cf1000040032000000e8003e
:101ee0000201e900fbff3a000000eb0000000600e1
:101ef000889fbe00800478000104780031009000c3
:101f00000000d0004501de00f07f2000800f51006e
:101f100010003a00800ceb00310090006f00600070
:101f200008003a00210090000000e00005003a009f
:101f3000110090000000e00002003a001100e000f3
:101f400002003200200020001500370010002000a1
:101f5000130037000200e00005003c00010078009b
:101f6000cf010700000178000000e0000a003c00fb
:101f700038009000f10028000100600001fe2300fd
:101f8000010070003004980020c02f00800c410038
:101f90000080eb0002003700800ceb000000eb003b
:101fa0004f04be0000000600881f78008a9fbe0014
:101fb000000478000205be00300190000200d0004d
:101fc000c500de00f07f2000808f50000c003a003a
:101fd0006f00610008003a00280090000000e00057
:101fe00005003a00180090000000e00002003a00ee
:101ff0001800e0001c003200200020005d003700c7
:102000000100e00006003a0008007800a401070083
:10201000800078000000eb000100e00055003c006b
:102020006108b9000a0540008b854800e07f200068
:10203000800f5500e08f5d000d00340038009000e7
:102040006022b8000600200007ff2f000000e0001b
:10205000030035006022b8000600200007ff2700bb
:10206000049cbe000694be00100020004100370012
:10207000b8009000e00f5500e08f5d0005003400cf
:10208000f000280000806000c450dd0001007000f6
:102090003600370000002800808260006f806000fa
:1020a0000040a0003004980061055500e0855d0007
:1020b000c0fc2f00f1ff2f00800f5500818f5d00c5
:1020c00006003d00350498000000eb002004980055
:1020d00010049800000ceb00260037000a0278007c
:1020e000f00f45000b003c0018009000000c780039
:1020f00028009000100498003800900020049800f8
:102100000000eb003004980070024200f00f420023
:10211000f5ff34000402ea001200320018017800d2
:102120000411de00f0011200180090008300dd00b1
:10213000010c71000400de00280190008310dd0016
:1021400001007000100498000411de0038009000b7
:102150008301dd0003017100220498000400de0009
:10216000300498003800900005007000300498009a
:102170000080eb004f05be004f0478000000060011
:102180000400fa00889fbe008a9fbe008c9fbe009c
:1021900080bf9f0091bf9f000206be00060307009c
:1021a0000001be000004be000c00be003c0507009c
:1021b0000fb997009fb9970000055100818559001c
:1021c0000800be000a01be004f06be004f05be005b
:1021d0004f04be000080fa00000006000a00fa006a
:1021e000889fbe008a9fbe008c9fbe0000047800be
:1021f00001457800820578008304780004067800a1
:102200000300e00002003c0019002000eb912000d8
:1022100060c6b300804f55000e00320060c4b300aa
:10222000804f55000b00320070c6b300804f550040
:102230000300320070c4b300804f550083003a00a1
:10224000e40f46008100350058089000800f5600ca
:102250007e003d000c06e80060c6b300804f5500cc
:102260001000320060c4b300804f55000d003200f2
:10227000081090000038a30004003a0058089000ad
:10228000808f540001003d00590c980058089000c0
:102290000c005000500c980002003b000000eb00c6
:1022a000500c98000c00e00027003c00f2014400b4
:1022b000130178006800900001c3b3000170790039
:1022c0000201e80082097800580890000000e00050
:1022d00003003c00081090000038a3000400320006
:1022e000e8009000e0c2b300807079008209e80045
:1022f0000c00ea00d8089000808f500001003d00db
:102300000106ea000c00ea00200c98000c80400056
:10231000500c9800890f500001003d0080047800a7
:10232000680090009808900001004000390c980067
:10233000090178008b0078008af80700580890009f
:10234000090050001a003700e800900018089000bb
:102350008c8f540018003d00008040000901780077
:102360008b0078007ff807001808900009014000f2
:10237000120c980009005600200c98005808900094
:102380000000e00003003c00081090000038a300ab
:1023900006003200e8009000e0c2b30080707900cf
:1023a000380890000000e800300c980058089000b1
:1023b000400c9800a3003700008040000c0178001a
:1023c0008b00780067f80700180890000c004000a8
:1023d000100c98008c845400580890000000e00015
:1023e00003003c00081090000038a30006003200f3
:1023f000f20144009300780068019000e0c2b3004d
:1024000000f178008109e80058089000890f500019
:1024100001003d008004780068009000980890005a
:10242000010040008c804500090178004df807004c
:102430001808900009004000100c980058089000ff
:1024400009005000200c98007e00370070c6b300d1
:10245000804f55000300320070c4b300804f550018
:1024600014003a0058089000808f540004003d008a
:10247000081090000038a30001003a00590c9800a1
:10248000580890000000e900500c980002003b0042
:102490000000eb00500c980051c6b30070c6b300aa
:1024a000804f55000100320051c4b300014578004f
:1024b0000900370010c6b300804f550002003a00f3
:1024c0000ac7b3000400370010c4b300804f5500a2
:1024d00001003a000ac5b300f2014400130178007c
:1024e000680090003b7079000201e80082097800e2
:1024f000580890000000e00003003c000810900025
:102500000038a30004003200e8009000e0c2b300ed
:10251000807079008209e800580890000000e0000f
:10252000100034008904e900890f500001003d00cb
:102530008004780068009000980890000100400036
:10254000090178008b00780006f807001808900051
:1025500009004000100c9800580890000900500035
:10256000200c9800e800900018089000808540003a
:102570008a5d78008b06e8000c00e000040035005e
:10258000b0c2b300804d78008d057800040037009c
:10259000d0c2b300804d78008d0578000c06ea00ab
:1025a0008004eb000c00e00009003400a1002000d2
:1025b0000c0078008d0007007681540001f17f0047
:1025c000000678008904e8000000e000f7ff3c0006
:1025d000e18f540009003c0050c6b300804f550005
:1025e0000300320050c4b300804f550003003a008e
:1025f00000c3b300805e78008d0578000900e0001c
:1026000002003a0000c3b300805d78000900e000da
:10261000070034008904e900f680540061c07f009f
:1026200002c3b300825d40000900e000f9ff3c00f6
:10263000680090009808900001004000008055005c
:10264000300c98000810900074006000f00f5000eb
:102650000e003a00780090009808900001004000b9
:10266000a808900001004000b80890000100400058
:10267000c80890008100400078089000808f5000ca
:1026800002003d0001005000000c98004f06be0003
:102690004f05be004f04be000080fa000000060097
:1026a0000002780030009000010028000103600063
:1026b000150020006f0060003002980008003a000a
:1026c000240090000000e00005003a001400900093
:1026d0000000e00002003a001400e0003e0032007a
:1026e000340090000000e0000b003a00240090004d
:1026f0003002980014009000200298001400780026
:1027000010029800000aeb00f082520034009000a2
:102710000000e000f5ff320034009000ef0f5000a1
:1027200014003e008001d000a40090004f08de009d
:1027300080817100330298008100d0001401900064
:102740004f10de0080807000210298000201d0004e
:10275000940078004f08de0000017100120298001a
:10276000010ad0008502e90003007800ef8f5100d4
:10277000ecff3600b4019000ff8f510013003600cb
:102780001401d10014009000cf00dd00010a710097
:102790000000d100a40090004f09dd00020070008d
:1027a000100298008100d1004f18dd008080700079
:1027b000210298000300d100300298008502e80051
:1027c00080017800ff0f5000edff3e0034009000c4
:1027d0006f00600030029800340090000600700026
:1027e0003002980005007800000006000101780022
:1027f00000027800110009000200d8000002fd006c
:102800000491b900820250000400be0000000600de
:10281000889fbe008a9fbe00010578000100e0008d
:102820000400350008003c000000e00020003200f9
:102830000500370060001000e080180002003b0037
:1028400001f02c001a0037000004be006011b8002f
:102850006b0920000982cf00020039000882cf00f6
:102860000441b000694252000e00320008003b00f3
:1028700082817100610164008904d1000884d30061
:102880008b05e8000442e800f9ff3a000500370034
:102890000804440089844c008b05e9000442e900e7
:1028a000fbff3a00970007000af0a70001f0a00024
:1028b0004f05be004f04be000000060003f0a2005a
:1028c000889fbe008a9fbe008c1f7800b30007005f
:1028d000ba0033006450e1004f0032006420e10090
:1028e0005200320003826c0007003b000905d00053
:1028f0000306d000820f54000c065d000200390070
:1029000002003200890178000306780085825500b4
:1029100004003d000003fd008103fd008502ea0084
:102920008b854200840f720002003b0060001000a3
:10293000e08018006011b8000005eb007a28e10083
:102940000a00390006007800c75ddd00f707b20015
:10295000878075002d003700828171000a017800a0
:10296000610560008180d1000080d3008502e9000c
:10297000f9ff3b00060440008784480002003b004a
:1029800060041400e0841c000988a30007003200e2
:102990008a81710082817100610164008904d10023
:1029a0000884d3008b05e800170037000978a300de
:1029b00013003a000b00e000130034008b05e9001f
:1029c0000804440089844c000a4474000978a30078
:1029d0000d003a000b00e000070034008b05e90011
:1029e0000804440089844c0001003a000b002000d8
:1029f0000978a300f7ff32000001eb000200370066
:102a0000828171000a0178003e0007000cf0a700e7
:102a100001f0a000720037006420e10002003a00db
:102a2000838f6c00720033000801be000200be00fc
:102a30006b003700889fbe008a9fbe008c1f780005
:102a4000560007005d00330003866c006450e1000f
:102a5000240032006420e100270032006150e100d0
:102a6000220032006120e100210032008b8542000b
:102a7000eb07b1000134b800003ab8000804420086
:102a800089844a00013ab8000030b80088804000cc
:102a900009014a0004003300000040008180480022
:102aa000020149008b05e900c909dd0083017000be
:102ab0000100320013002000c814de004814dd00bd
:102ac0004709de001200b200c808de00088470006a
:102ad0000c00070001f0a1000cf0a70001f0a0001d
:102ae0003f0037006120e100410032000801be00d4
:102af0000200be00f7ff37006150e100fcff3a0022
:102b00003b00370081002000618055000b003d0034
:102b10000b00200061fe2f000100e1001d003400c9
:102b200082817100610164008904d1000884d300ae
:102b30000000e800faff3a00710020006100640024
:102b400003007000020060000900320061044400cc
:102b5000e0844c000988a500050032008b05e800e0
:102b60006808e10002003a008904d1000884d3001b
:102b7000f20f20000258e10005003d00c75ddd00b6
:102b8000f907b2008980750008007800000006008f
:102b90000bf827008b007800000005000004be0041
:102ba000160007000003be000405be000200be00c0
:102bb00012000700844f7500000006000200be00ee
:102bc0006450e100050036006420e1000200360098
:102bd0000968a30001003a000800be000160a000df
:102be0004f0678004f05be004f04be0000000600ef
:102bf000f0ff2f00f1ff2700f9ff3700c70ade00c2
:102c0000f107b200f50fb20008003200e1cf420038
:102c1000020032000170a00024000500810f700046
:102c2000010032000408050044000500810f700017
:102c300002003a00140005008502e900000040008f
:102c400081c04800fcff3b000170a000240005008b
:102c500081037800e9ff07000001be006000b800b2
:102c60000478a30013003a006220e10015003e0042
:102c70000d0039008301d1000281d3008180d3008f
:102c80008301d1000281d3008180d3008301d10070
:102c90000281d3008180d3000538b000c42add0052
:102ca000f300b2008381720007f0a70003f0a000d8
:102cb00000000600f3ff2700f2ff2f006110b900ab
:102cc000fbff370003ff2700f7ff37008f1fd100fe
:102cd000790207008f87e9000000e000000006008d
:102ce0001400fa00889fbe008a9fbe008c9fbe0021
:102cf0000004be000205be00680047000a90be0046
:102d00000890be00950207000070a7000bf0a1001c
:102d1000304320009e02900080825200b0fe2f00bf
:102d20000028e10011003d00b0fc2f000028e10068
:102d3000150034001e0990008e0890007e0090005f
:102d40000501b0000201d1008180d3000080d300d2
:102d50008502e800fbff3a000b00e000ba023b00ee
:102d600060001000e0801800b7023700f0ff2f006d
:102d7000f1ff27000b00e000b3023b000100280038
:102d800000002000b00237006000b800ae0237003b
:102d90004f89de0082017800b002370007f0a20000
:102da000e5023700809feb00430207008f87e900b0
:102db0000000e00000000600839f68000100e000c2
:102dc00002003d0060001000e08018000300e000f9
:102dd00002003d0060011100e0811900530307006b
:102de0004f00e00002003b0060001000e08018008f
:102df000000006002800fa00889fbe008a9fbe00df
:102e00008c9fbe0003866b007b0207000028a30096
:102e100064003a000128a30067003a000008a300fc
:102e200062003a000108a30065003a001e0090000d
:102e3000be08900081064000ed3fb100f4805700cd
:102e4000ee019000111ab8008e099000311bb800f5
:102e50009e099000311cb800511db800f485570040
:102e600046000700fe0190003a0007008b85e8004d
:102e70003e0007008e09900040000700ee01900020
:102e8000340007008b85e800380007008e099000a9
:102e9000400007009e0990001b18b80089044000fc
:102ea0000a854800fe019000340007008b85e80089
:102eb00038000700ee019000300007008e099000f6
:102ec0001b18b800890440000a8548000a98a3002e
:102ed00008003a000402420085824a0006034b00c3
:102ee00087834b0008044c0089844c000a054d0080
:102ef0008d06e90084827200850273004c3add0081
:102f0000850272000100320015002000443ade0004
:102f10001400b2004538de00cb45dd000b00700028
:102f2000c540de00cb4ddd008b8070004549de00e2
:102f3000cb55dd000b017100c551de000d0378009b
:102f40000a03070003f0a1000cf0a70003f0a000a3
:102f50003d0237001b18b800850240000683480078
:102f6000e0834b0060044c00070037001b18b800da
:102f70000603400087834800faff37001b18b8009b
:102f80008703400008844800e0844c0060054d0041
:102f9000000006001b18b80008044000898448009f
:102fa000faff37000108a30024023a005800be00cf
:102fb0005801be00e3ff37000008a3001f023a00db
:102fc00009047800f9ff37002800fa00889fbe0046
:102fd0008a9fbe008c9fbe0003866b00060207001e
:102fe0006400e100440032006408e1004a0032005d
:102ff0006100e100460032006108e1004900320052
:10300000ec0647006000b8003d02be003d03be0074
:10301000f48657006011b8003d04be003d05be00b7
:103020007d0320000b0037000000a0008d06e900a2
:10303000130032000402420085824a0006034b005e
:1030400087834b0000004000818048000201490056
:10305000838149000802520089825a000a035b00fa
:103060008b835b00f0ff3b000802420089824a002c
:103070000a034b008b834b008d06e900edff3a00fd
:103080008482720086827200f707b2008782720023
:1030900001003200150020001e0490003e0b90003d
:1030a00006035400e63fb0000368a30007003200a7
:1030b0000000a7000500a0008301d1000281d30019
:1030c0008180d3000080d3000603e8008301d10093
:1030d0000281d3008180d3000080d3000002eb0086
:1030e0000482d200a102070003f0a1000cf0a700a7
:1030f00003f0a000d4013700640247006408e10037
:10310000ce0132003400be003401be00f6ff3700ad
:103110006108e100c90132006011b8006000b80028
:10312000f1ff370003ff270002002000fbff3700fc
:1031300060001000e080180060011900e0811900b3
:1031400000000600881f7800000478005001be00cf
:103150004000be000000420081804a0002014b0096
:1031600083814b00009cbe000294be00dc0007007f
:1031700003003100480090000000e800400498007f
:103180004f04780000000600889fbe00000478000d
:103190008004eb005001be004000be00d0000700dc
:1031a0000100310019002000040050008580580003
:1031b0000601590087815900009cbe000294be00a0
:1031c0004800900009005000400498004f04be00e1
:1031d000000006001200fa00889fbe008a9fbe0011
:1031e0008c1f78000205be000004be00f4b79f00eb
:1031f00085bf9f0096bf9f00a7bf9f000000eb0008
:10320000e0b79f00d0b79f00c0b79f00b0b79f0046
:10321000a0b79f000006eb005fb197006fb097006a
:103220008000d0000000e00015003d00e1b79f00e5
:10323000010078000200e00001003d000000a00055
:10324000ac00070001003d000000a000af00070037
:1032500001003d000000a000b200070001003d0099
:103260000000a0008100070001003d000000a00058
:10327000b20007007c805700b2ff0700140037003f
:10328000e1b79f00010078000200e00001003d006e
:103290000000a0009700070001003d000000a00012
:1032a0009a00070001003d000000a0009d000700fb
:1032b00001003d000000a0006c00070001003d007f
:1032c0000000a0009d0007007c805700aeff0700b3
:1032d0006fb097000000e0000700350010002000ec
:1032e000010020006011b80008047000898470009b
:1032f0000a0571008b8571000c06e800f0032000c0
:10330000800f5600c4ff34006fb097000000e0004b
:1033100006003d007fb297008fba97001fbb970051
:10332000afbb97007c80570086ff07000802be00f5
:103330000a03be006fa897000000e00004003a00f6
:103340002fb29700bfb297004fb39700dfb397003b
:103350000400be000601be004f0678004f05be0007
:103360004f04be000080fa0000000600881f7800ad
:1033700018002000881f780096ff07008f87e9005b
:103380004f04780000000600801feb0091ff07004b
:103390008f87e900000006000800fa00889fbe0041
:1033a0008a9fbe008c1f78006e00070005003d005c
:1033b00043000700300007000c003d003300070009
:1033c0000b003700e00f5200e08f5a00e00f5b0067
:1033d000e08f5b0006003d000400be000601be0059
:1033e00053ff07000205be000004be001c002000c1
:1033f0002c000700ddff07000c00e0000100320098
:103400004bff07004f0678004f05be004f04be007b
:103410000080fa00000006000800fa00889fbe0045
:103420008a9fbe008c1f78004e00070002003d00fe
:103430001c002000220007000f00070001003d00d3
:103440001200070017000700cfff07000c00e00084
:103450000100320036ff07004f0678004f05be001e
:103460004f04be000080fa000000060090b79f00e5
:103470000100d00080b79f00e00f5400e08f5c0097
:10348000e00f5d00e08f5d00000006000800be0058
:103490000a01be0026ff07000205be000004be00b0
:1034a000000006000802be000a03be005fb09700dd
:1034b000efb097007fb197008fb99700000006002a
:1034c0001bff07000100070000000600b0b79f00c7
:1034d000c1b79f00d2b79f00e3b79f00000006006e
:1034e0000400e1000588e1000690e1000798e10092
:1034f00000000600c0b79f000200d000b0b79f00d8
:10350000afb097000100e00000000600b0b79f00d8
:103510000100d000a0b79f009fb097000100e0001d
:1035200000000600a0b79f000100d00090b79f00e8
:103530008fb097000100e0000000060080b79f00f8
:103540000804d0008984d2000a85d2008b85d2007d
:103550005fb29700efb297007fb397008fbb9700e1
:1035600000000600d9ff07000605be000404be00e7
:103570000006eb00e00f5000e08f5800e00f59000c
:10358000e08f590000000600889fbe008a9fbe00a1
:103590008c9fbe000404b8000506b80089044600ec
:1035a00060854e000606b8000a054600e0854e001c
:1035b0000706b8008b054600040eb80089044600d3
:1035c0000a854e00050eb8000a0546008b854e00a0
:1035d000060eb8008b0546000416b8000a05460022
:1035e0008b854e000516b8008b054600041eb800fa
:1035f0008b0546000800be000a01be004f06be0053
:103600004f05be004f04be00000006000800fa008f
:10361000889fbe008a9fbe00170007000605be00f7
:103620000404be00e00f5200e08f5a00e00f5b0080
:10363000e08f5b0008003d000400be000601be00f4
:10364000bbfe07000205be000004be000f0007001d
:10365000b7fe0700080007000802be000a03be000c
:103660000a000700c8ff07004f05be004f04be0058
:103670000080fa0000000600e0b79f00f1b79f004d
:1036800082bf9f0093bf9f00000006006fb09700ad
:10369000ffb097000fb997009fb997000000060090
:1036a000020ab900001bb9000200b8008100420004
:1036b0008100430000000600889fbe008a9fbe0074
:1036c0008c9fbe000404be000605be00809fbe00a5
:1036d000829fbe0051010700040678000800be006a
:1036e0000a01be004d010700840678004f03be00aa
:1036f0004f02be008d4f76007fb09700130033005d
:10370000f0ff2f008b8f6b0006003b000d0666005c
:103710000c00a7000a00370007f0a60010002000e8
:103720000a003700880f5200898f5a008a0f5b0009
:103730008b8f5b00030039001000200001003e0069
:103740000000200007f0a7000000ea004f06be00be
:103750004f05be004f04be00000006008000780048
:103760005002be005003be004439de00f700b20034
:10377000f37f200003016100090032000218e1001c
:1037800016003a0085017200830173008381730083
:103790000008200015003a00400020001300370008
:1037a00085017200830173008381730005003a0074
:1037b00004a8be0006a8be00100020000b003700c1
:1037c0000201e9000402420085824a0006034b0020
:1037d00087834b000748a300f9ff32000740a00091
:1037e00004a8be0006a8be002000200080009800ab
:1037f0009200980000000600680447000294be0092
:103800000094be00fc0447008694be008494be0071
:1038100009007800d1ff070008007800cfff0700fb
:1038200099007800814f70000b003b000800be003b
:103830000c0107004f00b10003003700f3ff270021
:10384000f2ff2f006110b9004f06be004f05be0009
:103850004f04be000080fa0000000600889fbe00f2
:10386000830478000300e0002c00350003003c00d6
:1038700000827000040271002600320036432000ee
:10388000c50020008383cf000a0039000541b10044
:103890008283cf00070039000541b1008183cf004a
:1038a000040039000541b1008083cf0001003900d8
:1038b0000541b10085c353006022b80012003200f8
:1038c0000a003b0084827200610260008301d10023
:1038d0000281d3008180d3000080d3000603e8007a
:1038e0008743e800f7ff3a00070037000000400078
:1038f0008180480002014900838149000603e900f4
:103900008743e900f9ff3a009800070009f0a70093
:1039100003f0a0004f04be0000000600600010008d
:10392000e080180060011900e0811900d3ff3b001e
:10393000033e2c00f7ff37002800fa00889fbe00e6
:103940008a9fbe008c9fbe000706780087866900ac
:103950000c003b00030478008704780008f0a10005
:1039600009f0a100840f5000858f5800860f590080
:10397000890f5c00030033000cf0a20001003a0044
:103980000cf0a1009cff07006400e1005f00320022
:10399000780147006408e100610032006c014700d3
:1039a000748557003200be001201be003a04be000a
:1039b0001a05be001e039000be0a90008503530046
:1039c00006003d000004fd008104fd000205fd002d
:1039d0008305fd008703ea00050378000df8a300c6
:1039e0000400320060041400e0841c0060051d0027
:1039f000e0851d006022b8007d0320000d38e10045
:103a00008006eb000b0039004433dd00f300b20008
:103a10008301730039003700848272000d02780040
:103a2000e10664008b85d1000a85d3008984d30028
:103a30000884d3008703e900f7ff3b00080040003b
:103a4000898048000a0149008b81490004003b003d
:103a500060001000e080180060011900e08119008a
:103a60000358a300090032008d8272008482720024
:103a7000610260008301d1000281d3008180d30004
:103a80000080d3000603e8001b0037000348a300b2
:103a900017003a000600e000170034000603e900b2
:103aa0000d00a30000004800818048000201490089
:103ab000838149000348a3000f003a000600e0009c
:103ac000090034000603e90000004000818048003e
:103ad000020149008381490001003a000003eb0024
:103ae0000348a300f5ff32006022b800020037004f
:103af00084827200618266001c00070003f0a1004e
:103b00000cf0a70003f0a0004fff3700640147004e
:103b10006408e10002003a000df8a30047ff3a00f4
:103b20003200be001201be0047ff37006022b8001d
:103b3000060220000000d0008180d2000482d20062
:103b40008582d2000000a0000202520083825a0047
:103b500003003b000202420083824a000000a100f1
:103b60000603e900f3ff3a000000060018002000f9
:103b700057002000080453000d003d0006002000ff
:103b800097fc2f000740e1001e0034008482720081
:103b9000610260008301d1000281d3008180d300e3
:103ba0000080d3000804e800f8ff3a004700200036
:103bb0006104600005047400040464000d00320018
:103bc00061004000e080480060014900e081490058
:103bd00003b8a500070032000603e8006538e100dd
:103be00004003a008301d1000281d3008180d30018
:103bf0000080d300f87f20000830e100030035008a
:103c0000080378006000b8006011b8004433dd009c
:103c1000f300b200830173000000060005ff2700d7
:103c200005826100070032000428e1000100320033
:103c3000240005000600070001003a0044000500ca
:103c40000408050002000700f9ff3a00140005000f
:103c50006f8261008102700085027100850272002e
:103c600000000600e48240001078a3000700320044
:103c7000640240001178a3003400be001401be00ad
:103c8000040032000330a700000006003500be002b
:103c90001501be000330a00000000600a11088003e
:103ca000b01088000000060016c2bf000008a30084
:103cb000fdff3a0016c2bf000028a300faff3a0039
:103cc00016c2bf000038a300f7ff3a0016c2bf00bb
:103cd0000048a300f4ff3a0019c2bf000068a30027
:103ce000f1ff3a00000006001602a80000000600de
:103cf00012e2b70018c2bf000080fb004700de00e0
:103d00000000a2000000e900000006001642a80022
:103d1000000006001662a80016c2bf000038a3000b
:103d2000fdff3a0018c2a90010c2bf000080fb00ce
:103d30000000060016a2a9001682a80000000600d6
:103d400016a2a8001682a8000000060017e2a9002b
:103d50009a20a9009a40a9008a20a9008a40a900b7
:103d60000000060021e2a9009560a9009580a90045
:103d70008560a9008580a900000006004211880026
:103d800000118800111188000000060080007800f2
:103d900020c2bf000000d10063006000e30f5000ac
:103da00001003200f10fb20021118800000006006e
:103db0008000eb0023c2bf000008a30001003a000e
:103dc0001100200001007800000006000400fa0045
:103dd0000000eb00000f7800400620009e0f10004e
:103de0000c0032000000eb00100798009e009000cd
:103df00000712200808f5000040032001e009000ed
:103e00000000e80010079800f8ff37001e0fe800d8
:103e1000f1ff37000080fa00000006000400fa00fd
:103e2000517420009140780080cfb30000c0600042
:103e300045e7b700416a20009140780000ceb3000a
:103e400000c060009040b300a4e6b700816c200081
:103e50009140780000ceb30000c060003040b30055
:103e6000c8e6b7000030200040168800f0052000aa
:103e70004011880000002800001188000044200044
:103e800010118800f00f2000e017880000002f00bc
:103e9000601688000000eb00401688000009200032
:103ea000000f780000202f00100798009e00780077
:103eb0001e00900079ff07000b040700008020001f
:103ec0001704070003000700e80207000b010700c2
:103ed000fcff37002800fa00881f78000040eb0044
:103ee000004f7800a0c5b300104798000040eb00d9
:103ef00040479800a0c5b300205f9800a0c5b3005c
:103f0000305f9800a0c5b300405f9800a0c5b30023
:103f1000505f9800a0c5b300605f98000000eb0000
:103f2000101798000000eb00301798005eff0700a4
:103f30006dff070016c2bf000080fb00610060003b
:103f40000000e000fbff3a0060ceb30068ff07000e
:103f5000004f78001e04e0001c003a0050002000d2
:103f6000100798001e0090004800de00505f980087
:103f70009e009000f00f200000806000605f9800bd
:103f800000002a006016880047ff07000040eb0091
:103f900057ff070044ff07000040eb0054ff0700f5
:103fa00041ff070050c0b30051ff07003eff07006c
:103fb0005e5890004eff07003bff07006e589000d0
:103fc0004bff070038ff070050ff07007fff070087
:103fd00035ff070044ff070016c2bf000080fb004a
:103fe000610060000000e000fbff3a0070ceb3000b
:103ff0003fff0700004f78001e04e00078003a0001
:10400000000025006016880027ff070041ff070019
:10401000205f980047ff070006c2bf000080fb003a
:104020004400de000080fb0061006000e10f5000f2
:10403000f9ff32001cff070036ff0700305f9800d1
:104040003cff070006c2bf000080fb004400de000a
:104050000080fb0061006000e10f5000f9ff3200ba
:1040600011ff07002bff0700405f980031ff07009a
:1040700006c2bf000080fb004400de000080fb00a1
:1040800061006000e10f5000f9ff320006ff0700f9
:104090003e5890008080fb00001020000089b9008d
:1040a0004e5890000080fb0000004100001798006f
:1040b0000e109000f30f500024003e004e58900068
:1040c00065405000504798000040eb004047980082
:1040d000ce4090005e40900080cf5000280031001c
:1040e000e60047004e4090000080fb0001044000c5
:1040f00008ff0700004c78000eff070006c2bf0053
:104100000080fb004400de000080fb0061006000d6
:10411000e10f5000f9ff3200e3fe0700e600470020
:104120004e4090000080fb00010040009080fb00aa
:104130001e10900001004000101798004e409000a3
:104140000040e80040479800e1ff37000040eb00e6
:10415000305f980080c0b300405f9800e6004700e1
:1041600020c4b30080487800e600470010c4b300c4
:1041700090409800e600470040c4b300a04098007b
:10418000e4fe0700505f9800eafe070006c2bf0089
:104190000080fb004400de000080fb006100600046
:1041a000e10f5000f9ff3200bffe0700d9fe070003
:1041b000605f9800e2fe070006c2bf000080fb00bf
:1041c0004400de000080fb0061006000e10f500051
:1041d000f9ff3200b4fe0700ccfe070005003700ef
:1041e0001e40ea00104798000000eb0060168800af
:1041f000d6fe07000000000023c2bf000080fb00c5
:10420000610060000000e000fbff3200200220009f
:104210002011880023c2bf000080fb006100600005
:104220000000e000fbff32002e5890000080fb00f1
:10423000201188000040eb00404798004e4090005d
:104240008080fb004e5890000080fb00650050000d
:10425000808f50000f003d0023c2bf000080fb0094
:10426000610060000000e000fbff3200e600470054
:104270004e4090000080fb00010040001080fb00d9
:10428000201188004e4090000040e8004047980010
:10429000eaff37000000000023c2bf000080fb00df
:1042a000610060000000e000fbff320020022000ff
:1042b0002011880023c2bf000080fb006100600065
:1042c0000000e000fbff3200a00020002011880069
:1042d00023c2bf000080fb00610060000000e0001e
:1042e000fbff3200d000200020118800b7fe07003d
:1042f0004f0478000080fa00000006006200fa0017
:10430000881f78000040eb00004f7800a0c5b30084
:10431000104798000040eb0040479800a0c5b3004c
:10432000205f9800a0c5b300305f9800a0c5b3001f
:10433000405f9800a0c5b300505f9800a0c5b300cf
:10434000605f98000000eb00101798000000eb0081
:104350003017980054fe070063fe070016c2bf0026
:104360000080fb00610060000000e000fbff3a00fd
:1043700060ceb3005efe0700004f78001e04e00030
:104380001c003a0090002000100798001e009000ca
:104390004800de00505f98009e009000f00f200063
:1043a00000806000605f980000002a0060168800ae
:1043b0003dfe070040c0b3004dfe07003afe070077
:1043c0000040eb004afe070037fe070050c0b30074
:1043d00047fe070034fe07005e58900044fe0700c9
:1043e00031fe07006e58900041fe07002efe0700c8
:1043f00046fe070075fe07002bfe07003afe070089
:1044000016c2bf000080fb00610060000000e000f9
:10441000fbff3a0070ceb30035fe0700004f780076
:104420001e04e00078003a000000250060168800b5
:104430001dfe070037fe0700205f98003dfe0700c5
:1044400006c2bf000080fb004400de000080fb00cd
:1044500061006000e10f5000f9ff320012fe07001a
:104460002cfe0700305f980032fe070006c2bf0036
:104470000080fb004400de000080fb006100600063
:10448000e10f5000f9ff320007fe070021fe070090
:10449000405f980027fe070006c2bf000080fb00b7
:1044a0004400de000080fb0061006000e10f50006e
:1044b000f9ff3200fcfd07003e5890008080fb00b1
:1044c000001020000089b9004e5890000080fb00c9
:1044d00000004100001798000e109000f30f5000ec
:1044e00024003e004e589000654050005047980010
:1044f0000040eb0040479800ce4090005e409000a6
:1045000080cf500028003100e60047004e40900068
:104510000080fb0001044000fefd0700004c780015
:1045200004fe070006c2bf000080fb004400de005e
:104530000080fb0061006000e10f5000f9ff3200d5
:10454000d9fd0700e60047004e4090000080fb00c8
:10455000010040009080fb001e1090000100400010
:10456000101798004e4090000040e8004047980027
:10457000e1ff37000040eb00305f980080c0b300df
:10458000405f9800e600470020c4b30080487800f0
:10459000e600470010c4b30090409800e6004700d2
:1045a00040c4b300a0409800dafd0700505f9800b7
:1045b000e0fd070006c2bf000080fb004400de00f3
:1045c0000080fb0061006000e10f5000f9ff320045
:1045d000b5fd0700cffd0700605f9800d8fd07001c
:1045e00006c2bf000080fb004400de000080fb002c
:1045f00061006000e10f5000f9ff3200aafd0700e2
:10460000c2fd0700050037001e40ea001047980071
:104610000000eb0060168800ccfd07006000b800c9
:1046200050179800611798006000b8007017980044
:10463000011f98006000b800101f9800211f98000b
:104640006000b800301f9800411f98006000b8005b
:10465000501f9800611f98006000b800701f9800fc
:10466000012798006000b8001027980021279800c3
:10467000660047009080fb00001020000009b80091
:1046800066004700104090000080fb0000004100e1
:10469000401798004e109000cf80de005cf80700b5
:1046a00030279800412798004e1090000000e0004d
:1046b00007003d0002002000037824003e20900007
:1046c000ce2090007ef80700302798004127980000
:1046d00002002400e3d423003e209000ce2090006e
:1046e000d4f807005017980061179800660047003b
:1046f000204090008080fb00001020000009b800de
:1047000066004700304090000080fb000000410040
:10471000401798004e109000cf80de003cf8070054
:1047200050279800612798004e1090000000e0008c
:1047300007003d0002002000037824005e20900066
:10474000ee2090005ef8070050279800612798003f
:1047500002002400e3d423005e209000ee209000ad
:10476000b4f8070070179800011f98006600470012
:10477000404090008080fb00001020000009b8003d
:1047800066004700504090000080fb0000004100a0
:10479000401798004e109000cf80de001cf80700f4
:1047a00070279800012f98004e1090000000e00044
:1047b00007003d0002002000037824007e209000c6
:1047c0008e2890003ef8070070279800012f98006f
:1047d00002002400e3d423007e2090008e28900065
:1047e00094f80700101f9800211f980066004700ea
:1047f000604090008080fb00001020000009b8009d
:1048000066004700704090000080fb0000004100ff
:10481000401798004e109000cf80de00fcf7070094
:10482000102f9800212f98004e1090000000e000fb
:1048300007003d0002002000037824001e2890009d
:10484000ae2890001ef80700102f9800212f980026
:1048500002002400e3d423001e289000ae2890001c
:1048600074f80700301f9800411f98006600470049
:10487000004890008080fb00001020000009b80074
:1048800066004700104890000080fb0000004100d7
:10489000401798004e109000cf80de00dcf7070034
:1048a000302f9800412f98004e1090000000e0003b
:1048b00007003d0002002000037824003e289000fd
:1048c000ce289000fef70700302f9800412f980067
:1048d00002002400e3d423003e289000ce2890005c
:1048e00054f80700501f9800611f980066004700a9
:1048f000204890008080fb00001020000009b800d4
:1049000066004700304890000080fb000000410036
:10491000401798004e109000cf80de00bcf70700d3
:10492000502f9800612f98004e1090000000e0007a
:1049300007003d0002002000037824005e2890005c
:10494000ee289000def70700502f9800612f9800a6
:1049500002002400e3d423005e289000ee2890009b
:1049600034f80700701f9800012798006600470080
:10497000404890008080fb00001020000009b80033
:1049800066004700504890000080fb000000410096
:10499000401798004e109000cf80de009cf7070073
:1049a000702f9800013798004e1090000000e00032
:1049b00007003d0002002000037824007e289000bc
:1049c0008e309000bef70700702f980001379800d6
:1049d0003233230033bd23007e2890008e309000b8
:1049e00014f8070010279800212798001e20900037
:1049f000ae209000809fbe007e1890008e20900018
:104a0000809fbe005e189000ee189000809fbe0050
:104a10003e189000ce189000809fbe001e18900097
:104a2000ae189000809fbe007e1090008e189000ff
:104a3000809fbe005e109000ee109000809fbe0030
:104a4000e07b2a00801f780000802000b4ee070081
:104a5000fe8757000080200031010700dbfc0700c3
:104a60004f0478000080fa00000006003a00fa00c7
:104a7000881f78000040eb00004f7800a0c5b3000d
:104a8000104798000040eb0040479800a0c5b300d5
:104a9000205f9800a0c5b300305f9800a0c5b300a8
:104aa000405f9800a0c5b300505f9800a0c5b30058
:104ab000605f98000000eb00101798000000eb000a
:104ac0003017980078fc070087fc070016c2bf006b
:104ad0000080fb00610060000000e000fbff3a0086
:104ae00060ceb30082fc0700004f78001e04e00097
:104af0001c003a00d0002000100798001e00900013
:104b00004800de00505f98009e009000f00f2000eb
:104b100000806000605f980000002a006016880036
:104b200061fc070080c0b30071fc07005efc070059
:104b30000040eb006efc07005bfc070050c0b300b8
:104b40006bfc070058fc07005e58900068fc0700eb
:104b500055fc07006e58900065fc070052fc0700ea
:104b60006afc070099fc07004ffc07005efc070089
:104b700016c2bf000080fb00610060000000e00082
:104b8000fbff3a0070ceb30059fc0700004f7800dd
:104b90001e04e00078003a0000002500601688003e
:104ba00041fc07005bfc0700205f980061fc0700e8
:104bb00006c2bf000080fb004400de000080fb0056
:104bc00061006000e10f5000f9ff320036fc070081
:104bd00050fc0700305f980056fc070006c2bf007b
:104be0000080fb004400de000080fb0061006000ec
:104bf000e10f5000f9ff32002bfc070045fc0700d5
:104c0000405f98004bfc070006c2bf000080fb001d
:104c10004400de000080fb0061006000e10f5000f6
:104c2000f9ff320020fc07003e5890008080fb0016
:104c3000001020000089b9004e5890000080fb0051
:104c400000004100001798000e109000f30f500074
:104c500024003e004e589000654050005047980098
:104c60000040eb0040479800ce4090005e4090002e
:104c700080cf500028003100e60047004e409000f1
:104c80000080fb000104400022fc0700004c78007b
:104c900028fc070006c2bf000080fb004400de00c5
:104ca0000080fb0061006000e10f5000f9ff32005e
:104cb000fdfb0700e60047004e4090000080fb002f
:104cc000010040009080fb001e1090000100400099
:104cd000101798004e4090000040e80040479800b0
:104ce000e1ff37000040eb00305f980080c0b30068
:104cf000405f9800e600470020c4b3008048780079
:104d0000e600470010c4b30090409800e60047005a
:104d100040c4b300a0409800fefb0700505f98001d
:104d200004fc070006c2bf000080fb004400de0058
:104d30000080fb0061006000e10f5000f9ff3200cd
:104d4000d9fb0700f3fb0700605f9800fcfb07003e
:104d500006c2bf000080fb004400de000080fb00b4
:104d600061006000e10f5000f9ff3200cefb070048
:104d7000e6fb0700050037001e40ea0010479800d8
:104d80000000eb0060168800f0fb07006000b80030
:104d900050179800611798006000b80070179800cd
:104da000011f980066004700104090008080fb00c3
:104db000001020000009b800660047002040900065
:104dc0000080fb0000004100401798004e1090004a
:104dd000cf80de008ef60700101f9800211f98007c
:104de0004e1090000000e00007003d00020020008f
:104df000037824001e189000ae189000b0f607004b
:104e0000101f9800211f98003233230033bd230068
:104e10001e189000ae18900006f707005017980073
:104e20006117980066004700304090008080fb00ca
:104e3000001020000009b8006600470040409000c4
:104e40000080fb0000004100401798004e109000c9
:104e5000cf80de006ef60700301f9800411f9800db
:104e60004e1090000000e00007003d00020020000e
:104e7000037824003e189000ce18900090f60700aa
:104e8000301f9800411f980002002400e3d4230043
:104e90003e189000ce189000e6f6070070179800b4
:104ea000011f98007e1090008e189000809fbe0019
:104eb0005e109000ee109000809fbe00d0802a000f
:104ec000801f78000080200095ed0700ea875700da
:104ed0000080200012000700bcfb07004f04780090
:104ee0000080fa00000006000600fa009dfb0700a3
:104ef000f0052000000f780000002800100798003f
:104f000000442000200798001e017800ae009000a9
:104f10001e00900099fb07000080fa0000000600c8
:104f20000400fa00000f78000000eb001007980062
:104f30001e0090001e0040001004e0000d00320032
:104f40000e81e80012007800800078009e8040000a
:104f50009100fb000000e8000009780001007800e3
:104f60008afb070092fb07000000e000fdff3a000b
:0c4f7000efff37000080fa000000060090
:020000040000fa
:100008003e2900003e2900003e2900003e2900004c
:100018003e2900003e2900003e2900003e2900003c
:100028003e2900003e2900003e2900003e2900002c
:100038003e2900003e2900003e2900003e2900001c
:020000040000fa
:020000040000fa
:104f7c0053430000313a0000253500002e33000069
:104f8c006620000053430000323a00002535000033
:104f9c002e3300006620000053430000333a00001b
:104fac00253500002e33000066200000534300001e
:104fbc00343a0000253500002e3300006620000036
:104fcc0053430000353a0000253500002e33000015
:104fdc00662000002c530000433600003a250000e8
:104fec00352e000033660000205300006f6c00006b
:104ffc0061720000566f00006c7400003a250000ce
:10500c00352e0000336600000d0a0000004300003e
:10501c006861000072670000652000005374000096
:10502c0061740000757300003a4f00006666000062
:10503c002042000061740000745600006f6c000088
:10504c00743a0000253500002e3300006620000065
:10505c00426100007474000044720000617700002b
:10506c003a250000352e0000336600000d0a0000c2
:04507c000000000030
:020000040000fa
:105080000008000064000000020000007465730066
:1050900074696e00673132003300000000000000c8
:1050a0000000000000000000000000000000000000
:1050b00000000000000000000000000000000000f0
:1050c00000000000000000000000000000000000e0
:1050d00000000000000000000000000000000000d0
:1050e00000000000000000000000000000000000c0
:1050f00000000000000000000000000000000000b0
:10510000000000000000000000000000000000009f
:1051100000000000ce0800001200000002000000a5
:10512000202b2d00233000000100020000040000ad
:105130000800100000000000160900000800000030
:1051400002000000686a6c00747a4c0000000000e5
:105150006408000048000000020000000000000099
:105160000000000024400000000000000000590082
:10517000400000000000000088c340000000000064
:105180000084d7009741000080e0370079c34100d8
:1051900043176e0005b5b500b8934600f5f93f001a
:1051a000e9034f00384d32001d30f9004877820086
:1051b0005a3cbf00737fdd004f157500e408000006
:1051c00032000000020000004e414e00006e6100ff
:1051d0006e0049004e460000696e660000303100e6
:1051e0003233340035363700383961006263640089
:1051f0006566000030313200333435003637380010
:10520000394142004344450046000000ac0800001c
:10521000220000000200000030313200333435003b
:10522000363738003961620063646500660030001b
:1052300031323300343536003738390041424300cb
:105240004445460000000000e008000002000000a5
:1052500002000000000000001e0900000200000023
:105260000200000030000000e20800000200000020
:0c52700002000000000000000000000030
:020000040000fa
:04527c000000fe0030
:00000001FF
